{
  "contractName": "BloodDonor",
  "abi": [
    {
      "inputs": [
        {
          "internalType": "address",
          "name": "",
          "type": "address"
        }
      ],
      "name": "donors",
      "outputs": [
        {
          "internalType": "string",
          "name": "firstName",
          "type": "string"
        },
        {
          "internalType": "string",
          "name": "lastName",
          "type": "string"
        },
        {
          "internalType": "uint256",
          "name": "dob",
          "type": "uint256"
        },
        {
          "internalType": "uint256",
          "name": "weight",
          "type": "uint256"
        },
        {
          "internalType": "uint256",
          "name": "lastDonationTimestamp",
          "type": "uint256"
        },
        {
          "internalType": "bool",
          "name": "isEligible",
          "type": "bool"
        }
      ],
      "stateMutability": "view",
      "type": "function",
      "constant": true
    },
    {
      "inputs": [
        {
          "internalType": "uint256",
          "name": "_weight",
          "type": "uint256"
        }
      ],
      "name": "setWeight",
      "outputs": [],
      "stateMutability": "nonpayable",
      "type": "function"
    },
    {
      "inputs": [
        {
          "internalType": "uint256",
          "name": "_dob",
          "type": "uint256"
        }
      ],
      "name": "setDOB",
      "outputs": [],
      "stateMutability": "nonpayable",
      "type": "function"
    },
    {
      "inputs": [],
      "name": "checkEligibility",
      "outputs": [
        {
          "internalType": "bool",
          "name": "",
          "type": "bool"
        }
      ],
      "stateMutability": "view",
      "type": "function",
      "constant": true
    }
  ],
  "bytecode": "0x608060405234801561001057600080fd5b506106bc806100206000396000f3fe608060405234801561001057600080fd5b506004361061004c5760003560e01c8063049e45d71461005157806388ca94251461006f578063ca0cdea81461008b578063fc1711f2146100c0575b600080fd5b6100596100dc565b60405161006691906104a5565b60405180910390f35b610089600480360381019061008491906103bf565b61013e565b005b6100a560048036038101906100a09190610396565b6101ca565b6040516100b7969594939291906104c0565b60405180910390f35b6100da60048036038101906100d591906103bf565b610323565b005b6000806000803373ffffffffffffffffffffffffffffffffffffffff1673ffffffffffffffffffffffffffffffffffffffff1681526020019081526020016000209050603281600301541061013557600191505061013b565b60009150505b90565b42811115610181576040517f08c379a00000000000000000000000000000000000000000000000000000000081526004016101789061052f565b60405180910390fd5b806000803373ffffffffffffffffffffffffffffffffffffffff1673ffffffffffffffffffffffffffffffffffffffff1681526020019081526020016000206002018190555050565b60006020528060005260406000206000915090508060000180546101ed906105e6565b80601f0160208091040260200160405190810160405280929190818152602001828054610219906105e6565b80156102665780601f1061023b57610100808354040283529160200191610266565b820191906000526020600020905b81548152906001019060200180831161024957829003601f168201915b50505050509080600101805461027b906105e6565b80601f01602080910402602001604051908101604052809291908181526020018280546102a7906105e6565b80156102f45780601f106102c9576101008083540402835291602001916102f4565b820191906000526020600020905b8154815290600101906020018083116102d757829003601f168201915b5050505050908060020154908060030154908060040154908060050160009054906101000a900460ff16905086565b806000803373ffffffffffffffffffffffffffffffffffffffff1673ffffffffffffffffffffffffffffffffffffffff1681526020019081526020016000206003018190555050565b60008135905061037b81610658565b92915050565b6000813590506103908161066f565b92915050565b6000602082840312156103a857600080fd5b60006103b68482850161036c565b91505092915050565b6000602082840312156103d157600080fd5b60006103df84828501610381565b91505092915050565b6103f18161057d565b82525050565b60006104028261054f565b61040c818561055a565b935061041c8185602086016105b3565b61042581610647565b840191505092915050565b600061043d60258361055a565b91507f44617465206f662062697274682063616e6e6f7420626520696e20746865206660008301527f75747572650000000000000000000000000000000000000000000000000000006020830152604082019050919050565b61049f816105a9565b82525050565b60006020820190506104ba60008301846103e8565b92915050565b600060c08201905081810360008301526104da81896103f7565b905081810360208301526104ee81886103f7565b90506104fd6040830187610496565b61050a6060830186610496565b6105176080830185610496565b61052460a08301846103e8565b979650505050505050565b6000602082019050818103600083015261054881610430565b9050919050565b600081519050919050565b600082825260208201905092915050565b600061057682610589565b9050919050565b60008115159050919050565b600073ffffffffffffffffffffffffffffffffffffffff82169050919050565b6000819050919050565b60005b838110156105d15780820151818401526020810190506105b6565b838111156105e0576000848401525b50505050565b600060028204905060018216806105fe57607f821691505b6020821081141561061257610611610618565b5b50919050565b7f4e487b7100000000000000000000000000000000000000000000000000000000600052602260045260246000fd5b6000601f19601f8301169050919050565b6106618161056b565b811461066c57600080fd5b50565b610678816105a9565b811461068357600080fd5b5056fea2646970667358221220750edf59149e24f962cf6d55ae10b59e7fc4c64006becf044955ee03351a9a4064736f6c63430008000033",
  "immutableReferences": {},
  "source": "// SPDX-License-Identifier: MIT\r\npragma solidity ^0.8.0;\r\n\r\ncontract BloodDonor {\r\n    // Structure to represent a donor\r\n    struct Donor {\r\n        string firstName; // First name of the donor\r\n        string lastName; // Last name of the donor\r\n        uint dob; // Date of birth of the donor (Unix timestamp)\r\n        uint weight; // Weight of the donor in kilograms\r\n        uint lastDonationTimestamp; // Timestamp of the last donation\r\n        bool isEligible; // Flag to indicate donor eligibility\r\n    }\r\n\r\n    // Mapping of donor addresses to donor details\r\n    mapping(address => Donor) public donors;\r\n\r\n    // Function to set the weight for a donor\r\n    function setWeight(uint _weight) external {\r\n        donors[msg.sender].weight = _weight;\r\n    }\r\n\r\n    // Function to set the date of birth for a donor\r\n    function setDOB(uint _dob) external {\r\n        require(_dob <= block.timestamp, \"Date of birth cannot be in the future\");\r\n        donors[msg.sender].dob = _dob;\r\n    }\r\n\r\n    // Function to check donor eligibility\r\n    function checkEligibility() external view returns (bool) {\r\n        // Retrieve donor details\r\n        Donor storage donor = donors[msg.sender];\r\n\r\n        // Check eligibility criteria\r\n        if (donor.weight >= 50) {\r\n            // Eligibility criteria met, update donor status and return true\r\n            return true;\r\n        } else {\r\n            // Not eligible, return false\r\n            return false;\r\n        }\r\n    }\r\n}\r\n",
  "sourcePath": "C:\\Users\\anumi\\Desktop\\ethereum-coursework\\contracts\\BloodDonor.sol",
  "compiler": {
    "name": "solc",
    "version": "0.8.0+commit.c7dfd78e.Emscripten.clang"
  },
  "schemaVersion": "3.4.16",
  "updatedAt": "2024-04-06T22:38:48.911Z",
  "networkType": "ethereum",
  "devdoc": {
    "kind": "dev",
    "methods": {},
    "version": 1
  },
  "userdoc": {
    "kind": "user",
    "methods": {},
    "version": 1
  }
}